{
  "_format": "hh-sol-artifact-1",
  "contractName": "DocumentVerification",
  "sourceName": "contracts/Transactions.sol",
  "abi": [
    {
      "inputs": [],
      "stateMutability": "nonpayable",
      "type": "constructor"
    },
    {
      "inputs": [
        {
          "internalType": "string",
          "name": "documentHash",
          "type": "string"
        },
        {
          "internalType": "string",
          "name": "newHash",
          "type": "string"
        },
        {
          "internalType": "string",
          "name": "reason",
          "type": "string"
        }
      ],
      "name": "disqualifyDocument",
      "outputs": [],
      "stateMutability": "nonpayable",
      "type": "function"
    },
    {
      "inputs": [],
      "name": "feeReceiver",
      "outputs": [
        {
          "internalType": "address payable",
          "name": "",
          "type": "address"
        }
      ],
      "stateMutability": "view",
      "type": "function"
    },
    {
      "inputs": [
        {
          "internalType": "string",
          "name": "documentHash",
          "type": "string"
        }
      ],
      "name": "getDisqualificationReason",
      "outputs": [
        {
          "internalType": "string",
          "name": "",
          "type": "string"
        }
      ],
      "stateMutability": "view",
      "type": "function"
    },
    {
      "inputs": [],
      "name": "owner",
      "outputs": [
        {
          "internalType": "address",
          "name": "",
          "type": "address"
        }
      ],
      "stateMutability": "view",
      "type": "function"
    },
    {
      "inputs": [],
      "name": "serviceFee",
      "outputs": [
        {
          "internalType": "uint256",
          "name": "",
          "type": "uint256"
        }
      ],
      "stateMutability": "view",
      "type": "function"
    },
    {
      "inputs": [
        {
          "internalType": "string[]",
          "name": "documentHashes",
          "type": "string[]"
        }
      ],
      "name": "uploadDocuments",
      "outputs": [],
      "stateMutability": "payable",
      "type": "function"
    },
    {
      "inputs": [
        {
          "internalType": "address",
          "name": "uploader",
          "type": "address"
        },
        {
          "internalType": "string",
          "name": "documentHash",
          "type": "string"
        }
      ],
      "name": "verifyDocument",
      "outputs": [
        {
          "internalType": "bool",
          "name": "",
          "type": "bool"
        },
        {
          "internalType": "string",
          "name": "",
          "type": "string"
        }
      ],
      "stateMutability": "view",
      "type": "function"
    }
  ],
  "bytecode": "0x6080604052632639e3bf600555737f1fe31a172969286b69cca0553dc26097b91fc9600660006101000a81548173ffffffffffffffffffffffffffffffffffffffff021916908373ffffffffffffffffffffffffffffffffffffffff16021790555034801561006d57600080fd5b50336000806101000a81548173ffffffffffffffffffffffffffffffffffffffff021916908373ffffffffffffffffffffffffffffffffffffffff160217905550611057806100bd6000396000f3fe6080604052600436106100705760003560e01c8063a08d8bc31161004e578063a08d8bc314610109578063b3f0067414610125578063b9fb06a414610150578063c61901181461018d57610070565b8063641ee9d5146100755780638abdf5aa146100b35780638da5cb5b146100de575b600080fd5b34801561008157600080fd5b5061009c60048036038101906100979190610934565b6101b6565b6040516100aa929190610c7a565b60405180910390f35b3480156100bf57600080fd5b506100c8610325565b6040516100d59190610d2c565b60405180910390f35b3480156100ea57600080fd5b506100f361032b565b6040516101009190610c44565b60405180910390f35b610123600480360381019061011e9190610988565b61034f565b005b34801561013157600080fd5b5061013a6104df565b6040516101479190610c5f565b60405180910390f35b34801561015c57600080fd5b50610177600480360381019061017291906109c9565b610505565b6040516101849190610caa565b60405180910390f35b34801561019957600080fd5b506101b460048036038101906101af9190610a0a565b6105b5565b005b600060606002836040516101ca9190610c2d565b908152602001604051809103902060009054906101000a900460ff16156102a05760006003846040516101fd9190610c2d565b908152602001604051809103902080805461021790610ef1565b80601f016020809104026020016040519081016040528092919081815260200182805461024390610ef1565b80156102905780601f1061026557610100808354040283529160200191610290565b820191906000526020600020905b81548152906001019060200180831161027357829003601f168201915b505050505090509150915061031e565b600160008573ffffffffffffffffffffffffffffffffffffffff1673ffffffffffffffffffffffffffffffffffffffff168152602001908152602001600020836040516102ed9190610c2d565b908152602001604051809103902060009054906101000a900460ff1660405180602001604052806000815250915091505b9250929050565b60055481565b60008054906101000a900473ffffffffffffffffffffffffffffffffffffffff1681565b805160055461035e9190610dfb565b3410156103a0576040517f08c379a000000000000000000000000000000000000000000000000000000000815260040161039790610ccc565b60405180910390fd5b60005b81518110156104725760018060003373ffffffffffffffffffffffffffffffffffffffff1673ffffffffffffffffffffffffffffffffffffffff168152602001908152602001600020838381518110610425577f4e487b7100000000000000000000000000000000000000000000000000000000600052603260045260246000fd5b602002602001015160405161043a9190610c2d565b908152602001604051809103902060006101000a81548160ff021916908315150217905550808061046a90610f23565b9150506103a3565b50600660009054906101000a900473ffffffffffffffffffffffffffffffffffffffff1673ffffffffffffffffffffffffffffffffffffffff166108fc349081150290604051600060405180830381858888f193505050501580156104db573d6000803e3d6000fd5b5050565b600660009054906101000a900473ffffffffffffffffffffffffffffffffffffffff1681565b60606004826040516105179190610c2d565b9081526020016040518091039020805461053090610ef1565b80601f016020809104026020016040519081016040528092919081815260200182805461055c90610ef1565b80156105a95780601f1061057e576101008083540402835291602001916105a9565b820191906000526020600020905b81548152906001019060200180831161058c57829003601f168201915b50505050509050919050565b60008054906101000a900473ffffffffffffffffffffffffffffffffffffffff1673ffffffffffffffffffffffffffffffffffffffff163373ffffffffffffffffffffffffffffffffffffffff1614610643576040517f08c379a000000000000000000000000000000000000000000000000000000000815260040161063a90610cec565b60405180910390fd5b600160003373ffffffffffffffffffffffffffffffffffffffff1673ffffffffffffffffffffffffffffffffffffffff168152602001908152602001600020836040516106909190610c2d565b908152602001604051809103902060009054906101000a900460ff166106eb576040517f08c379a00000000000000000000000000000000000000000000000000000000081526004016106e290610d0c565b60405180910390fd5b60016002846040516106fd9190610c2d565b908152602001604051809103902060006101000a81548160ff021916908315150217905550816003846040516107339190610c2d565b9081526020016040518091039020908051906020019061075492919061078d565b50806004846040516107669190610c2d565b9081526020016040518091039020908051906020019061078792919061078d565b50505050565b82805461079990610ef1565b90600052602060002090601f0160209004810192826107bb5760008555610802565b82601f106107d457805160ff1916838001178555610802565b82800160010185558215610802579182015b828111156108015782518255916020019190600101906107e6565b5b50905061080f9190610813565b5090565b5b8082111561082c576000816000905550600101610814565b5090565b600061084361083e84610d78565b610d47565b9050808382526020820190508260005b858110156108835781358501610869888261090a565b845260208401935060208301925050600181019050610853565b5050509392505050565b60006108a061089b84610da4565b610d47565b9050828152602081018484840111156108b857600080fd5b6108c3848285610eaf565b509392505050565b6000813590506108da8161100a565b92915050565b600082601f8301126108f157600080fd5b8135610901848260208601610830565b91505092915050565b600082601f83011261091b57600080fd5b813561092b84826020860161088d565b91505092915050565b6000806040838503121561094757600080fd5b6000610955858286016108cb565b925050602083013567ffffffffffffffff81111561097257600080fd5b61097e8582860161090a565b9150509250929050565b60006020828403121561099a57600080fd5b600082013567ffffffffffffffff8111156109b457600080fd5b6109c0848285016108e0565b91505092915050565b6000602082840312156109db57600080fd5b600082013567ffffffffffffffff8111156109f557600080fd5b610a018482850161090a565b91505092915050565b600080600060608486031215610a1f57600080fd5b600084013567ffffffffffffffff811115610a3957600080fd5b610a458682870161090a565b935050602084013567ffffffffffffffff811115610a6257600080fd5b610a6e8682870161090a565b925050604084013567ffffffffffffffff811115610a8b57600080fd5b610a978682870161090a565b9150509250925092565b610aaa81610e67565b82525050565b610ab981610e55565b82525050565b610ac881610e79565b82525050565b6000610ad982610dd4565b610ae38185610ddf565b9350610af3818560208601610ebe565b610afc81610ff9565b840191505092915050565b6000610b1282610dd4565b610b1c8185610df0565b9350610b2c818560208601610ebe565b80840191505092915050565b6000610b45601883610ddf565b91507f496e73756666696369656e7420736572766963652066656500000000000000006000830152602082019050919050565b6000610b85602683610ddf565b91507f4f6e6c7920746865206f776e65722063616e20706572666f726d20746869732060008301527f616374696f6e00000000000000000000000000000000000000000000000000006020830152604082019050919050565b6000610beb601283610ddf565b91507f446f63756d656e74206e6f7420666f756e6400000000000000000000000000006000830152602082019050919050565b610c2781610ea5565b82525050565b6000610c398284610b07565b915081905092915050565b6000602082019050610c596000830184610ab0565b92915050565b6000602082019050610c746000830184610aa1565b92915050565b6000604082019050610c8f6000830185610abf565b8181036020830152610ca18184610ace565b90509392505050565b60006020820190508181036000830152610cc48184610ace565b905092915050565b60006020820190508181036000830152610ce581610b38565b9050919050565b60006020820190508181036000830152610d0581610b78565b9050919050565b60006020820190508181036000830152610d2581610bde565b9050919050565b6000602082019050610d416000830184610c1e565b92915050565b6000604051905081810181811067ffffffffffffffff82111715610d6e57610d6d610fca565b5b8060405250919050565b600067ffffffffffffffff821115610d9357610d92610fca565b5b602082029050602081019050919050565b600067ffffffffffffffff821115610dbf57610dbe610fca565b5b601f19601f8301169050602081019050919050565b600081519050919050565b600082825260208201905092915050565b600081905092915050565b6000610e0682610ea5565b9150610e1183610ea5565b9250817fffffffffffffffffffffffffffffffffffffffffffffffffffffffffffffffff0483118215151615610e4a57610e49610f6c565b5b828202905092915050565b6000610e6082610e85565b9050919050565b6000610e7282610e85565b9050919050565b60008115159050919050565b600073ffffffffffffffffffffffffffffffffffffffff82169050919050565b6000819050919050565b82818337600083830152505050565b60005b83811015610edc578082015181840152602081019050610ec1565b83811115610eeb576000848401525b50505050565b60006002820490506001821680610f0957607f821691505b60208210811415610f1d57610f1c610f9b565b5b50919050565b6000610f2e82610ea5565b91507fffffffffffffffffffffffffffffffffffffffffffffffffffffffffffffffff821415610f6157610f60610f6c565b5b600182019050919050565b7f4e487b7100000000000000000000000000000000000000000000000000000000600052601160045260246000fd5b7f4e487b7100000000000000000000000000000000000000000000000000000000600052602260045260246000fd5b7f4e487b7100000000000000000000000000000000000000000000000000000000600052604160045260246000fd5b6000601f19601f8301169050919050565b61101381610e55565b811461101e57600080fd5b5056fea2646970667358221220450edef07985c7f371d72db5509bcaa7f5cee65f38e4497b82b86c767272791c64736f6c63430008000033",
  "linkReferences": {},
  "deployedLinkReferences": {}
}